{
  "contractName": "Tokenship",
  "abi": [
    {
      "inputs": [],
      "stateMutability": "nonpayable",
      "type": "constructor"
    },
    {
      "anonymous": false,
      "inputs": [
        {
          "indexed": true,
          "internalType": "address",
          "name": "owner",
          "type": "address"
        },
        {
          "indexed": true,
          "internalType": "address",
          "name": "approved",
          "type": "address"
        },
        {
          "indexed": true,
          "internalType": "uint256",
          "name": "tokenId",
          "type": "uint256"
        }
      ],
      "name": "Approval",
      "type": "event"
    },
    {
      "anonymous": false,
      "inputs": [
        {
          "indexed": true,
          "internalType": "address",
          "name": "owner",
          "type": "address"
        },
        {
          "indexed": true,
          "internalType": "address",
          "name": "operator",
          "type": "address"
        },
        {
          "indexed": false,
          "internalType": "bool",
          "name": "approved",
          "type": "bool"
        }
      ],
      "name": "ApprovalForAll",
      "type": "event"
    },
    {
      "anonymous": false,
      "inputs": [
        {
          "indexed": true,
          "internalType": "bytes32",
          "name": "role",
          "type": "bytes32"
        },
        {
          "indexed": true,
          "internalType": "bytes32",
          "name": "previousAdminRole",
          "type": "bytes32"
        },
        {
          "indexed": true,
          "internalType": "bytes32",
          "name": "newAdminRole",
          "type": "bytes32"
        }
      ],
      "name": "RoleAdminChanged",
      "type": "event"
    },
    {
      "anonymous": false,
      "inputs": [
        {
          "indexed": true,
          "internalType": "bytes32",
          "name": "role",
          "type": "bytes32"
        },
        {
          "indexed": true,
          "internalType": "address",
          "name": "account",
          "type": "address"
        },
        {
          "indexed": true,
          "internalType": "address",
          "name": "sender",
          "type": "address"
        }
      ],
      "name": "RoleGranted",
      "type": "event"
    },
    {
      "anonymous": false,
      "inputs": [
        {
          "indexed": true,
          "internalType": "bytes32",
          "name": "role",
          "type": "bytes32"
        },
        {
          "indexed": true,
          "internalType": "address",
          "name": "account",
          "type": "address"
        },
        {
          "indexed": true,
          "internalType": "address",
          "name": "sender",
          "type": "address"
        }
      ],
      "name": "RoleRevoked",
      "type": "event"
    },
    {
      "anonymous": false,
      "inputs": [
        {
          "indexed": true,
          "internalType": "address",
          "name": "from",
          "type": "address"
        },
        {
          "indexed": true,
          "internalType": "address",
          "name": "to",
          "type": "address"
        },
        {
          "indexed": true,
          "internalType": "uint256",
          "name": "tokenId",
          "type": "uint256"
        }
      ],
      "name": "Transfer",
      "type": "event"
    },
    {
      "inputs": [],
      "name": "DEFAULT_ADMIN_ROLE",
      "outputs": [
        {
          "internalType": "bytes32",
          "name": "",
          "type": "bytes32"
        }
      ],
      "stateMutability": "view",
      "type": "function",
      "constant": true
    },
    {
      "inputs": [
        {
          "internalType": "address",
          "name": "to",
          "type": "address"
        },
        {
          "internalType": "uint256",
          "name": "tokenId",
          "type": "uint256"
        }
      ],
      "name": "approve",
      "outputs": [],
      "stateMutability": "nonpayable",
      "type": "function"
    },
    {
      "inputs": [
        {
          "internalType": "address",
          "name": "owner",
          "type": "address"
        }
      ],
      "name": "balanceOf",
      "outputs": [
        {
          "internalType": "uint256",
          "name": "",
          "type": "uint256"
        }
      ],
      "stateMutability": "view",
      "type": "function",
      "constant": true
    },
    {
      "inputs": [
        {
          "internalType": "uint256",
          "name": "tokenId",
          "type": "uint256"
        }
      ],
      "name": "getApproved",
      "outputs": [
        {
          "internalType": "address",
          "name": "",
          "type": "address"
        }
      ],
      "stateMutability": "view",
      "type": "function",
      "constant": true
    },
    {
      "inputs": [
        {
          "internalType": "bytes32",
          "name": "role",
          "type": "bytes32"
        }
      ],
      "name": "getRoleAdmin",
      "outputs": [
        {
          "internalType": "bytes32",
          "name": "",
          "type": "bytes32"
        }
      ],
      "stateMutability": "view",
      "type": "function",
      "constant": true
    },
    {
      "inputs": [
        {
          "internalType": "bytes32",
          "name": "role",
          "type": "bytes32"
        },
        {
          "internalType": "address",
          "name": "account",
          "type": "address"
        }
      ],
      "name": "grantRole",
      "outputs": [],
      "stateMutability": "nonpayable",
      "type": "function"
    },
    {
      "inputs": [
        {
          "internalType": "bytes32",
          "name": "role",
          "type": "bytes32"
        },
        {
          "internalType": "address",
          "name": "account",
          "type": "address"
        }
      ],
      "name": "hasRole",
      "outputs": [
        {
          "internalType": "bool",
          "name": "",
          "type": "bool"
        }
      ],
      "stateMutability": "view",
      "type": "function",
      "constant": true
    },
    {
      "inputs": [
        {
          "internalType": "address",
          "name": "owner",
          "type": "address"
        },
        {
          "internalType": "address",
          "name": "operator",
          "type": "address"
        }
      ],
      "name": "isApprovedForAll",
      "outputs": [
        {
          "internalType": "bool",
          "name": "",
          "type": "bool"
        }
      ],
      "stateMutability": "view",
      "type": "function",
      "constant": true
    },
    {
      "inputs": [],
      "name": "name",
      "outputs": [
        {
          "internalType": "string",
          "name": "",
          "type": "string"
        }
      ],
      "stateMutability": "view",
      "type": "function",
      "constant": true
    },
    {
      "inputs": [
        {
          "internalType": "uint256",
          "name": "tokenId",
          "type": "uint256"
        }
      ],
      "name": "ownerOf",
      "outputs": [
        {
          "internalType": "address",
          "name": "",
          "type": "address"
        }
      ],
      "stateMutability": "view",
      "type": "function",
      "constant": true
    },
    {
      "inputs": [
        {
          "internalType": "bytes32",
          "name": "role",
          "type": "bytes32"
        },
        {
          "internalType": "address",
          "name": "account",
          "type": "address"
        }
      ],
      "name": "renounceRole",
      "outputs": [],
      "stateMutability": "nonpayable",
      "type": "function"
    },
    {
      "inputs": [
        {
          "internalType": "bytes32",
          "name": "role",
          "type": "bytes32"
        },
        {
          "internalType": "address",
          "name": "account",
          "type": "address"
        }
      ],
      "name": "revokeRole",
      "outputs": [],
      "stateMutability": "nonpayable",
      "type": "function"
    },
    {
      "inputs": [
        {
          "internalType": "address",
          "name": "from",
          "type": "address"
        },
        {
          "internalType": "address",
          "name": "to",
          "type": "address"
        },
        {
          "internalType": "uint256",
          "name": "tokenId",
          "type": "uint256"
        }
      ],
      "name": "safeTransferFrom",
      "outputs": [],
      "stateMutability": "nonpayable",
      "type": "function"
    },
    {
      "inputs": [
        {
          "internalType": "address",
          "name": "from",
          "type": "address"
        },
        {
          "internalType": "address",
          "name": "to",
          "type": "address"
        },
        {
          "internalType": "uint256",
          "name": "tokenId",
          "type": "uint256"
        },
        {
          "internalType": "bytes",
          "name": "_data",
          "type": "bytes"
        }
      ],
      "name": "safeTransferFrom",
      "outputs": [],
      "stateMutability": "nonpayable",
      "type": "function"
    },
    {
      "inputs": [
        {
          "internalType": "address",
          "name": "operator",
          "type": "address"
        },
        {
          "internalType": "bool",
          "name": "approved",
          "type": "bool"
        }
      ],
      "name": "setApprovalForAll",
      "outputs": [],
      "stateMutability": "nonpayable",
      "type": "function"
    },
    {
      "inputs": [],
      "name": "symbol",
      "outputs": [
        {
          "internalType": "string",
          "name": "",
          "type": "string"
        }
      ],
      "stateMutability": "view",
      "type": "function",
      "constant": true
    },
    {
      "inputs": [
        {
          "internalType": "uint256",
          "name": "index",
          "type": "uint256"
        }
      ],
      "name": "tokenByIndex",
      "outputs": [
        {
          "internalType": "uint256",
          "name": "",
          "type": "uint256"
        }
      ],
      "stateMutability": "view",
      "type": "function",
      "constant": true
    },
    {
      "inputs": [
        {
          "internalType": "address",
          "name": "owner",
          "type": "address"
        },
        {
          "internalType": "uint256",
          "name": "index",
          "type": "uint256"
        }
      ],
      "name": "tokenOfOwnerByIndex",
      "outputs": [
        {
          "internalType": "uint256",
          "name": "",
          "type": "uint256"
        }
      ],
      "stateMutability": "view",
      "type": "function",
      "constant": true
    },
    {
      "inputs": [
        {
          "internalType": "uint256",
          "name": "tokenId",
          "type": "uint256"
        }
      ],
      "name": "tokenURI",
      "outputs": [
        {
          "internalType": "string",
          "name": "",
          "type": "string"
        }
      ],
      "stateMutability": "view",
      "type": "function",
      "constant": true
    },
    {
      "inputs": [
        {
          "internalType": "address",
          "name": "from",
          "type": "address"
        },
        {
          "internalType": "address",
          "name": "to",
          "type": "address"
        },
        {
          "internalType": "uint256",
          "name": "tokenId",
          "type": "uint256"
        }
      ],
      "name": "transferFrom",
      "outputs": [],
      "stateMutability": "nonpayable",
      "type": "function"
    },
    {
      "inputs": [
        {
          "internalType": "address",
          "name": "owner",
          "type": "address"
        },
        {
          "internalType": "uint256",
          "name": "n",
          "type": "uint256"
        },
        {
          "internalType": "string",
          "name": "association",
          "type": "string"
        }
      ],
      "name": "mintMultNFT",
      "outputs": [],
      "stateMutability": "nonpayable",
      "type": "function"
    },
    {
      "inputs": [
        {
          "internalType": "string",
          "name": "association",
          "type": "string"
        }
      ],
      "name": "getAllTksInfo",
      "outputs": [
        {
          "internalType": "uint256[]",
          "name": "",
          "type": "uint256[]"
        },
        {
          "internalType": "string[]",
          "name": "",
          "type": "string[]"
        }
      ],
      "stateMutability": "view",
      "type": "function",
      "constant": true
    },
    {
      "inputs": [],
      "name": "totalSupply",
      "outputs": [
        {
          "internalType": "uint256",
          "name": "",
          "type": "uint256"
        }
      ],
      "stateMutability": "view",
      "type": "function",
      "constant": true
    },
    {
      "inputs": [
        {
          "internalType": "string",
          "name": "association",
          "type": "string"
        }
      ],
      "name": "totalSupply",
      "outputs": [
        {
          "internalType": "uint256",
          "name": "",
          "type": "uint256"
        }
      ],
      "stateMutability": "view",
      "type": "function",
      "constant": true
    },
    {
      "inputs": [
        {
          "internalType": "bytes4",
          "name": "interfaceId",
          "type": "bytes4"
        }
      ],
      "name": "supportsInterface",
      "outputs": [
        {
          "internalType": "bool",
          "name": "",
          "type": "bool"
        }
      ],
      "stateMutability": "view",
      "type": "function",
      "constant": true
    }
  ],
  "bytecode": "0x60806040523480156200001157600080fd5b506040518060400160405280600981526020017f546f6b656e7368697000000000000000000000000000000000000000000000008152506040518060400160405280600381526020017f544b53000000000000000000000000000000000000000000000000000000000081525081600090805190602001906200009692919062000265565b508060019080519060200190620000af92919062000265565b505050620000e47f9f2df0fed2c77648de5860a4cc508cd0818c85b8b8a1ab4ceeef8d981c8956a633620000ea60201b60201c565b6200037a565b620000fc82826200010060201b60201c565b5050565b620001128282620001f260201b60201c565b620001ee576001600a600084815260200190815260200160002060000160008373ffffffffffffffffffffffffffffffffffffffff1673ffffffffffffffffffffffffffffffffffffffff16815260200190815260200160002060006101000a81548160ff021916908315150217905550620001936200025d60201b60201c565b73ffffffffffffffffffffffffffffffffffffffff168173ffffffffffffffffffffffffffffffffffffffff16837f2f8788117e7eff1d82e926ec794901d17c78024a50270940304540a733656f0d60405160405180910390a45b5050565b6000600a600084815260200190815260200160002060000160008373ffffffffffffffffffffffffffffffffffffffff1673ffffffffffffffffffffffffffffffffffffffff16815260200190815260200160002060009054906101000a900460ff16905092915050565b600033905090565b828054620002739062000315565b90600052602060002090601f016020900481019282620002975760008555620002e3565b82601f10620002b257805160ff1916838001178555620002e3565b82800160010185558215620002e3579182015b82811115620002e2578251825591602001919060010190620002c5565b5b509050620002f29190620002f6565b5090565b5b8082111562000311576000816000905550600101620002f7565b5090565b600060028204905060018216806200032e57607f821691505b602082108114156200034557620003446200034b565b5b50919050565b7f4e487b7100000000000000000000000000000000000000000000000000000000600052602260045260246000fd5b614397806200038a6000396000f3fe608060405234801561001057600080fd5b50600436106101735760003560e01c80634f6ccce7116100de578063a22cb46511610097578063c87b56dd11610071578063c87b56dd14610495578063d0317eb7146104c5578063d547741f146104e1578063e985e9c5146104fd57610173565b8063a22cb4651461042d578063b88d4fde14610449578063c415db131461046557610173565b80634f6ccce7146103315780636352211e1461036157806370a082311461039157806391d14854146103c157806395d89b41146103f1578063a217fddf1461040f57610173565b806323b872dd1161013057806323b872dd14610261578063248a9ca31461027d5780632f2ff15d146102ad5780632f745c59146102c957806336568abe146102f957806342842e0e1461031557610173565b806301ffc9a71461017857806306fdde03146101a8578063081812fc146101c6578063095ea7b3146101f657806313ffab401461021257806318160ddd14610243575b600080fd5b610192600480360381019061018d9190612e34565b61052d565b60405161019f919061351c565b60405180910390f35b6101b061053f565b6040516101bd9190613552565b60405180910390f35b6101e060048036038101906101db9190612ed7565b6105d1565b6040516101ed919061347e565b60405180910390f35b610210600480360381019061020b9190612d18565b610656565b005b61022c60048036038101906102279190612e8e565b61076e565b60405161023a9291906134e5565b60405180910390f35b61024b61098f565b60405161025891906137d4565b60405180910390f35b61027b60048036038101906102769190612c02565b61099c565b005b61029760048036038101906102929190612dc7565b6109fc565b6040516102a49190613537565b60405180910390f35b6102c760048036038101906102c29190612df4565b610a1c565b005b6102e360048036038101906102de9190612d18565b610a45565b6040516102f091906137d4565b60405180910390f35b610313600480360381019061030e9190612df4565b610aea565b005b61032f600480360381019061032a9190612c02565b610b6d565b005b61034b60048036038101906103469190612ed7565b610b8d565b60405161035891906137d4565b60405180910390f35b61037b60048036038101906103769190612ed7565b610bfe565b604051610388919061347e565b60405180910390f35b6103ab60048036038101906103a69190612b95565b610cb0565b6040516103b891906137d4565b60405180910390f35b6103db60048036038101906103d69190612df4565b610d68565b6040516103e8919061351c565b60405180910390f35b6103f9610dd3565b6040516104069190613552565b60405180910390f35b610417610e65565b6040516104249190613537565b60405180910390f35b61044760048036038101906104429190612cd8565b610e6c565b005b610463600480360381019061045e9190612c55565b610fed565b005b61047f600480360381019061047a9190612e8e565b61104f565b60405161048c91906137d4565b60405180910390f35b6104af60048036038101906104aa9190612ed7565b611130565b6040516104bc9190613552565b60405180910390f35b6104df60048036038101906104da9190612d58565b6111d7565b005b6104fb60048036038101906104f69190612df4565b611238565b005b61051760048036038101906105129190612bc2565b611261565b604051610524919061351c565b60405180910390f35b6000610538826112f5565b9050919050565b60606000805461054e90613b3b565b80601f016020809104026020016040519081016040528092919081815260200182805461057a90613b3b565b80156105c75780601f1061059c576101008083540402835291602001916105c7565b820191906000526020600020905b8154815290600101906020018083116105aa57829003601f168201915b5050505050905090565b60006105dc8261136f565b61061b576040517f08c379a0000000000000000000000000000000000000000000000000000000008152600401610612906136f4565b60405180910390fd5b6004600083815260200190815260200160002060009054906101000a900473ffffffffffffffffffffffffffffffffffffffff169050919050565b600061066182610bfe565b90508073ffffffffffffffffffffffffffffffffffffffff168373ffffffffffffffffffffffffffffffffffffffff1614156106d2576040517f08c379a00000000000000000000000000000000000000000000000000000000081526004016106c990613754565b60405180910390fd5b8073ffffffffffffffffffffffffffffffffffffffff166106f16113db565b73ffffffffffffffffffffffffffffffffffffffff161480610720575061071f8161071a6113db565b611261565b5b61075f576040517f08c379a000000000000000000000000000000000000000000000000000000000815260040161075690613674565b60405180910390fd5b61076983836113e3565b505050565b6060806000600c846040516107839190613409565b90815260200160405180910390208054905014156107d6576040517f08c379a00000000000000000000000000000000000000000000000000000000081526004016107cd90613634565b60405180910390fd5b6000600c846040516107e89190613409565b908152602001604051809103902080548060200260200160405190810160405280929190818152602001828054801561084057602002820191906000526020600020905b81548152602001906001019080831161082c575b5050505050905060008151905060008167ffffffffffffffff81111561086957610868613d03565b5b6040519080825280602002602001820160405280156108975781602001602082028036833780820191505090505b50905060008267ffffffffffffffff8111156108b6576108b5613d03565b5b6040519080825280602002602001820160405280156108e957816020015b60608152602001906001900390816108d45790505b5090506108f461297a565b60005b8481101561097e5761092286828151811061091557610914613cd4565b5b602002602001015161149c565b9150816000015184828151811061093c5761093b613cd4565b5b60200260200101818152505081602001518382815181106109605761095f613cd4565b5b6020026020010181905250808061097690613b9e565b9150506108f7565b508282965096505050505050915091565b6000600880549050905090565b6109ad6109a76113db565b82611574565b6109ec576040517f08c379a00000000000000000000000000000000000000000000000000000000081526004016109e390613774565b60405180910390fd5b6109f7838383611652565b505050565b6000600a6000838152602001908152602001600020600101549050919050565b610a25826109fc565b610a3681610a316113db565b6118ae565b610a40838361194b565b505050565b6000610a5083610cb0565b8210610a91576040517f08c379a0000000000000000000000000000000000000000000000000000000008152600401610a8890613594565b60405180910390fd5b600660008473ffffffffffffffffffffffffffffffffffffffff1673ffffffffffffffffffffffffffffffffffffffff168152602001908152602001600020600083815260200190815260200160002054905092915050565b610af26113db565b73ffffffffffffffffffffffffffffffffffffffff168173ffffffffffffffffffffffffffffffffffffffff1614610b5f576040517f08c379a0000000000000000000000000000000000000000000000000000000008152600401610b56906137b4565b60405180910390fd5b610b698282611a2c565b5050565b610b8883838360405180602001604052806000815250610fed565b505050565b6000610b9761098f565b8210610bd8576040517f08c379a0000000000000000000000000000000000000000000000000000000008152600401610bcf90613794565b60405180910390fd5b60088281548110610bec57610beb613cd4565b5b90600052602060002001549050919050565b6000806002600084815260200190815260200160002060009054906101000a900473ffffffffffffffffffffffffffffffffffffffff169050600073ffffffffffffffffffffffffffffffffffffffff168173ffffffffffffffffffffffffffffffffffffffff161415610ca7576040517f08c379a0000000000000000000000000000000000000000000000000000000008152600401610c9e906136b4565b60405180910390fd5b80915050919050565b60008073ffffffffffffffffffffffffffffffffffffffff168273ffffffffffffffffffffffffffffffffffffffff161415610d21576040517f08c379a0000000000000000000000000000000000000000000000000000000008152600401610d1890613694565b60405180910390fd5b600360008373ffffffffffffffffffffffffffffffffffffffff1673ffffffffffffffffffffffffffffffffffffffff168152602001908152602001600020549050919050565b6000600a600084815260200190815260200160002060000160008373ffffffffffffffffffffffffffffffffffffffff1673ffffffffffffffffffffffffffffffffffffffff16815260200190815260200160002060009054906101000a900460ff16905092915050565b606060018054610de290613b3b565b80601f0160208091040260200160405190810160405280929190818152602001828054610e0e90613b3b565b8015610e5b5780601f10610e3057610100808354040283529160200191610e5b565b820191906000526020600020905b815481529060010190602001808311610e3e57829003601f168201915b5050505050905090565b6000801b81565b610e746113db565b73ffffffffffffffffffffffffffffffffffffffff168273ffffffffffffffffffffffffffffffffffffffff161415610ee2576040517f08c379a0000000000000000000000000000000000000000000000000000000008152600401610ed990613614565b60405180910390fd5b8060056000610eef6113db565b73ffffffffffffffffffffffffffffffffffffffff1673ffffffffffffffffffffffffffffffffffffffff16815260200190815260200160002060008473ffffffffffffffffffffffffffffffffffffffff1673ffffffffffffffffffffffffffffffffffffffff16815260200190815260200160002060006101000a81548160ff0219169083151502179055508173ffffffffffffffffffffffffffffffffffffffff16610f9c6113db565b73ffffffffffffffffffffffffffffffffffffffff167f17307eab39ab6107e8899845ad3d59bd9653f200f220920489ca2b5937696c3183604051610fe1919061351c565b60405180910390a35050565b610ffe610ff86113db565b83611574565b61103d576040517f08c379a000000000000000000000000000000000000000000000000000000000815260040161103490613774565b60405180910390fd5b61104984848484611b0e565b50505050565b600080600c836040516110629190613409565b90815260200160405180910390208054905014156110b5576040517f08c379a00000000000000000000000000000000000000000000000000000000081526004016110ac90613634565b60405180910390fd5b6000600c836040516110c79190613409565b908152602001604051809103902080548060200260200160405190810160405280929190818152602001828054801561111f57602002820191906000526020600020905b81548152602001906001019080831161110b575b505050505090508051915050919050565b606061113b8261136f565b61117a576040517f08c379a000000000000000000000000000000000000000000000000000000000815260040161117190613734565b60405180910390fd5b6000611184611b6a565b905060008151116111a457604051806020016040528060008152506111cf565b806111ae84611b81565b6040516020016111bf929190613420565b6040516020818303038152906040525b915050919050565b7f9f2df0fed2c77648de5860a4cc508cd0818c85b8b8a1ab4ceeef8d981c8956a6611209816112046113db565b6118ae565b60005b838110156112315761121e8584611ce2565b808061122990613b9e565b91505061120c565b5050505050565b611241826109fc565b6112528161124d6113db565b6118ae565b61125c8383611a2c565b505050565b6000600560008473ffffffffffffffffffffffffffffffffffffffff1673ffffffffffffffffffffffffffffffffffffffff16815260200190815260200160002060008373ffffffffffffffffffffffffffffffffffffffff1673ffffffffffffffffffffffffffffffffffffffff16815260200190815260200160002060009054906101000a900460ff16905092915050565b60007f7965db0b000000000000000000000000000000000000000000000000000000007bffffffffffffffffffffffffffffffffffffffffffffffffffffffff1916827bffffffffffffffffffffffffffffffffffffffffffffffffffffffff19161480611368575061136782611dbd565b5b9050919050565b60008073ffffffffffffffffffffffffffffffffffffffff166002600084815260200190815260200160002060009054906101000a900473ffffffffffffffffffffffffffffffffffffffff1673ffffffffffffffffffffffffffffffffffffffff1614159050919050565b600033905090565b816004600083815260200190815260200160002060006101000a81548173ffffffffffffffffffffffffffffffffffffffff021916908373ffffffffffffffffffffffffffffffffffffffff160217905550808273ffffffffffffffffffffffffffffffffffffffff1661145683610bfe565b73ffffffffffffffffffffffffffffffffffffffff167f8c5be1e5ebec7d5bd14f71427d1e84f3dd0314c0f7b2291e5b200ac8c7c3b92560405160405180910390a45050565b6114a461297a565b600d82815481106114b8576114b7613cd4565b5b9060005260206000209060020201604051806040016040529081600082015481526020016001820180546114eb90613b3b565b80601f016020809104026020016040519081016040528092919081815260200182805461151790613b3b565b80156115645780601f1061153957610100808354040283529160200191611564565b820191906000526020600020905b81548152906001019060200180831161154757829003601f168201915b5050505050815250509050919050565b600061157f8261136f565b6115be576040517f08c379a00000000000000000000000000000000000000000000000000000000081526004016115b590613654565b60405180910390fd5b60006115c983610bfe565b90508073ffffffffffffffffffffffffffffffffffffffff168473ffffffffffffffffffffffffffffffffffffffff16148061163857508373ffffffffffffffffffffffffffffffffffffffff16611620846105d1565b73ffffffffffffffffffffffffffffffffffffffff16145b8061164957506116488185611261565b5b91505092915050565b8273ffffffffffffffffffffffffffffffffffffffff1661167282610bfe565b73ffffffffffffffffffffffffffffffffffffffff16146116c8576040517f08c379a00000000000000000000000000000000000000000000000000000000081526004016116bf90613714565b60405180910390fd5b600073ffffffffffffffffffffffffffffffffffffffff168273ffffffffffffffffffffffffffffffffffffffff161415611738576040517f08c379a000000000000000000000000000000000000000000000000000000000815260040161172f906135f4565b60405180910390fd5b611743838383611e37565b61174e6000826113e3565b6001600360008573ffffffffffffffffffffffffffffffffffffffff1673ffffffffffffffffffffffffffffffffffffffff168152602001908152602001600020600082825461179e9190613a1d565b925050819055506001600360008473ffffffffffffffffffffffffffffffffffffffff1673ffffffffffffffffffffffffffffffffffffffff16815260200190815260200160002060008282546117f5919061393c565b92505081905550816002600083815260200190815260200160002060006101000a81548173ffffffffffffffffffffffffffffffffffffffff021916908373ffffffffffffffffffffffffffffffffffffffff160217905550808273ffffffffffffffffffffffffffffffffffffffff168473ffffffffffffffffffffffffffffffffffffffff167fddf252ad1be2c89b69c2b068fc378daa952ba7f163c4a11628f55a4df523b3ef60405160405180910390a4505050565b6118b88282610d68565b611947576118dd8173ffffffffffffffffffffffffffffffffffffffff166014611f4b565b6118eb8360001c6020611f4b565b6040516020016118fc929190613444565b6040516020818303038152906040526040517f08c379a000000000000000000000000000000000000000000000000000000000815260040161193e9190613552565b60405180910390fd5b5050565b6119558282610d68565b611a28576001600a600084815260200190815260200160002060000160008373ffffffffffffffffffffffffffffffffffffffff1673ffffffffffffffffffffffffffffffffffffffff16815260200190815260200160002060006101000a81548160ff0219169083151502179055506119cd6113db565b73ffffffffffffffffffffffffffffffffffffffff168173ffffffffffffffffffffffffffffffffffffffff16837f2f8788117e7eff1d82e926ec794901d17c78024a50270940304540a733656f0d60405160405180910390a45b5050565b611a368282610d68565b15611b0a576000600a600084815260200190815260200160002060000160008373ffffffffffffffffffffffffffffffffffffffff1673ffffffffffffffffffffffffffffffffffffffff16815260200190815260200160002060006101000a81548160ff021916908315150217905550611aaf6113db565b73ffffffffffffffffffffffffffffffffffffffff168173ffffffffffffffffffffffffffffffffffffffff16837ff6391f5c32d9c69d2a47ea670b442974b53935d1edc7fd64eb21e047a839171b60405160405180910390a45b5050565b611b19848484611652565b611b2584848484612187565b611b64576040517f08c379a0000000000000000000000000000000000000000000000000000000008152600401611b5b906135b4565b60405180910390fd5b50505050565b606060405180602001604052806000815250905090565b60606000821415611bc9576040518060400160405280600181526020017f30000000000000000000000000000000000000000000000000000000000000008152509050611cdd565b600082905060005b60008214611bfb578080611be490613b9e565b915050600a82611bf49190613992565b9150611bd1565b60008167ffffffffffffffff811115611c1757611c16613d03565b5b6040519080825280601f01601f191660200182016040528015611c495781602001600182028036833780820191505090505b5090505b60008514611cd657600182611c629190613a1d565b9150600a85611c719190613be7565b6030611c7d919061393c565b60f81b818381518110611c9357611c92613cd4565b5b60200101907effffffffffffffffffffffffffffffffffffffffffffffffffffffffffffff1916908160001a905350600a85611ccf9190613992565b9450611c4d565b8093505050505b919050565b6000611cee600b61231e565b9050611cfa838261232c565b60006040518060400160405280838152602001848152509050600d819080600181540180825580915050600190039060005260206000209060020201600090919091909150600082015181600001556020820151816001019080519060200190611d65929190612994565b505050600c83604051611d789190613409565b9081526020016040518091039020829080600181540180825580915050600190039060005260206000200160009091909190915055611db7600b6124fa565b50505050565b60007f780e9d63000000000000000000000000000000000000000000000000000000007bffffffffffffffffffffffffffffffffffffffffffffffffffffffff1916827bffffffffffffffffffffffffffffffffffffffffffffffffffffffff19161480611e305750611e2f82612510565b5b9050919050565b611e428383836125f2565b600073ffffffffffffffffffffffffffffffffffffffff168373ffffffffffffffffffffffffffffffffffffffff161415611e8557611e80816125f7565b611ec4565b8173ffffffffffffffffffffffffffffffffffffffff168373ffffffffffffffffffffffffffffffffffffffff1614611ec357611ec28382612640565b5b5b600073ffffffffffffffffffffffffffffffffffffffff168273ffffffffffffffffffffffffffffffffffffffff161415611f0757611f02816127ad565b611f46565b8273ffffffffffffffffffffffffffffffffffffffff168273ffffffffffffffffffffffffffffffffffffffff1614611f4557611f44828261287e565b5b5b505050565b606060006002836002611f5e91906139c3565b611f68919061393c565b67ffffffffffffffff811115611f8157611f80613d03565b5b6040519080825280601f01601f191660200182016040528015611fb35781602001600182028036833780820191505090505b5090507f300000000000000000000000000000000000000000000000000000000000000081600081518110611feb57611fea613cd4565b5b60200101907effffffffffffffffffffffffffffffffffffffffffffffffffffffffffffff1916908160001a9053507f78000000000000000000000000000000000000000000000000000000000000008160018151811061204f5761204e613cd4565b5b60200101907effffffffffffffffffffffffffffffffffffffffffffffffffffffffffffff1916908160001a9053506000600184600261208f91906139c3565b612099919061393c565b90505b6001811115612139577f3031323334353637383961626364656600000000000000000000000000000000600f8616601081106120db576120da613cd4565b5b1a60f81b8282815181106120f2576120f1613cd4565b5b60200101907effffffffffffffffffffffffffffffffffffffffffffffffffffffffffffff1916908160001a905350600485901c94508061213290613b11565b905061209c565b506000841461217d576040517f08c379a000000000000000000000000000000000000000000000000000000000815260040161217490613574565b60405180910390fd5b8091505092915050565b60006121a88473ffffffffffffffffffffffffffffffffffffffff166128fd565b15612311578373ffffffffffffffffffffffffffffffffffffffff1663150b7a026121d16113db565b8786866040518563ffffffff1660e01b81526004016121f39493929190613499565b602060405180830381600087803b15801561220d57600080fd5b505af192505050801561223e57506040513d601f19601f8201168201806040525081019061223b9190612e61565b60015b6122c1573d806000811461226e576040519150601f19603f3d011682016040523d82523d6000602084013e612273565b606091505b506000815114156122b9576040517f08c379a00000000000000000000000000000000000000000000000000000000081526004016122b0906135b4565b60405180910390fd5b805181602001fd5b63150b7a0260e01b7bffffffffffffffffffffffffffffffffffffffffffffffffffffffff1916817bffffffffffffffffffffffffffffffffffffffffffffffffffffffff191614915050612316565b600190505b949350505050565b600081600001549050919050565b600073ffffffffffffffffffffffffffffffffffffffff168273ffffffffffffffffffffffffffffffffffffffff16141561239c576040517f08c379a0000000000000000000000000000000000000000000000000000000008152600401612393906136d4565b60405180910390fd5b6123a58161136f565b156123e5576040517f08c379a00000000000000000000000000000000000000000000000000000000081526004016123dc906135d4565b60405180910390fd5b6123f160008383611e37565b6001600360008473ffffffffffffffffffffffffffffffffffffffff1673ffffffffffffffffffffffffffffffffffffffff1681526020019081526020016000206000828254612441919061393c565b92505081905550816002600083815260200190815260200160002060006101000a81548173ffffffffffffffffffffffffffffffffffffffff021916908373ffffffffffffffffffffffffffffffffffffffff160217905550808273ffffffffffffffffffffffffffffffffffffffff16600073ffffffffffffffffffffffffffffffffffffffff167fddf252ad1be2c89b69c2b068fc378daa952ba7f163c4a11628f55a4df523b3ef60405160405180910390a45050565b6001816000016000828254019250508190555050565b60007f80ac58cd000000000000000000000000000000000000000000000000000000007bffffffffffffffffffffffffffffffffffffffffffffffffffffffff1916827bffffffffffffffffffffffffffffffffffffffffffffffffffffffff191614806125db57507f5b5e139f000000000000000000000000000000000000000000000000000000007bffffffffffffffffffffffffffffffffffffffffffffffffffffffff1916827bffffffffffffffffffffffffffffffffffffffffffffffffffffffff1916145b806125eb57506125ea82612910565b5b9050919050565b505050565b6008805490506009600083815260200190815260200160002081905550600881908060018154018082558091505060019003906000526020600020016000909190919091505550565b6000600161264d84610cb0565b6126579190613a1d565b905060006007600084815260200190815260200160002054905081811461273c576000600660008673ffffffffffffffffffffffffffffffffffffffff1673ffffffffffffffffffffffffffffffffffffffff168152602001908152602001600020600084815260200190815260200160002054905080600660008773ffffffffffffffffffffffffffffffffffffffff1673ffffffffffffffffffffffffffffffffffffffff168152602001908152602001600020600084815260200190815260200160002081905550816007600083815260200190815260200160002081905550505b6007600084815260200190815260200160002060009055600660008573ffffffffffffffffffffffffffffffffffffffff1673ffffffffffffffffffffffffffffffffffffffff16815260200190815260200160002060008381526020019081526020016000206000905550505050565b600060016008805490506127c19190613a1d565b90506000600960008481526020019081526020016000205490506000600883815481106127f1576127f0613cd4565b5b90600052602060002001549050806008838154811061281357612812613cd4565b5b90600052602060002001819055508160096000838152602001908152602001600020819055506009600085815260200190815260200160002060009055600880548061286257612861613ca5565b5b6001900381819060005260206000200160009055905550505050565b600061288983610cb0565b905081600660008573ffffffffffffffffffffffffffffffffffffffff1673ffffffffffffffffffffffffffffffffffffffff168152602001908152602001600020600083815260200190815260200160002081905550806007600084815260200190815260200160002081905550505050565b600080823b905060008111915050919050565b60007f01ffc9a7000000000000000000000000000000000000000000000000000000007bffffffffffffffffffffffffffffffffffffffffffffffffffffffff1916827bffffffffffffffffffffffffffffffffffffffffffffffffffffffff1916149050919050565b604051806040016040528060008152602001606081525090565b8280546129a090613b3b565b90600052602060002090601f0160209004810192826129c25760008555612a09565b82601f106129db57805160ff1916838001178555612a09565b82800160010185558215612a09579182015b82811115612a085782518255916020019190600101906129ed565b5b509050612a169190612a1a565b5090565b5b80821115612a33576000816000905550600101612a1b565b5090565b6000612a4a612a4584613814565b6137ef565b905082815260208101848484011115612a6657612a65613d37565b5b612a71848285613acf565b509392505050565b6000612a8c612a8784613845565b6137ef565b905082815260208101848484011115612aa857612aa7613d37565b5b612ab3848285613acf565b509392505050565b600081359050612aca816142ee565b92915050565b600081359050612adf81614305565b92915050565b600081359050612af48161431c565b92915050565b600081359050612b0981614333565b92915050565b600081519050612b1e81614333565b92915050565b600082601f830112612b3957612b38613d32565b5b8135612b49848260208601612a37565b91505092915050565b600082601f830112612b6757612b66613d32565b5b8135612b77848260208601612a79565b91505092915050565b600081359050612b8f8161434a565b92915050565b600060208284031215612bab57612baa613d41565b5b6000612bb984828501612abb565b91505092915050565b60008060408385031215612bd957612bd8613d41565b5b6000612be785828601612abb565b9250506020612bf885828601612abb565b9150509250929050565b600080600060608486031215612c1b57612c1a613d41565b5b6000612c2986828701612abb565b9350506020612c3a86828701612abb565b9250506040612c4b86828701612b80565b9150509250925092565b60008060008060808587031215612c6f57612c6e613d41565b5b6000612c7d87828801612abb565b9450506020612c8e87828801612abb565b9350506040612c9f87828801612b80565b925050606085013567ffffffffffffffff811115612cc057612cbf613d3c565b5b612ccc87828801612b24565b91505092959194509250565b60008060408385031215612cef57612cee613d41565b5b6000612cfd85828601612abb565b9250506020612d0e85828601612ad0565b9150509250929050565b60008060408385031215612d2f57612d2e613d41565b5b6000612d3d85828601612abb565b9250506020612d4e85828601612b80565b9150509250929050565b600080600060608486031215612d7157612d70613d41565b5b6000612d7f86828701612abb565b9350506020612d9086828701612b80565b925050604084013567ffffffffffffffff811115612db157612db0613d3c565b5b612dbd86828701612b52565b9150509250925092565b600060208284031215612ddd57612ddc613d41565b5b6000612deb84828501612ae5565b91505092915050565b60008060408385031215612e0b57612e0a613d41565b5b6000612e1985828601612ae5565b9250506020612e2a85828601612abb565b9150509250929050565b600060208284031215612e4a57612e49613d41565b5b6000612e5884828501612afa565b91505092915050565b600060208284031215612e7757612e76613d41565b5b6000612e8584828501612b0f565b91505092915050565b600060208284031215612ea457612ea3613d41565b5b600082013567ffffffffffffffff811115612ec257612ec1613d3c565b5b612ece84828501612b52565b91505092915050565b600060208284031215612eed57612eec613d41565b5b6000612efb84828501612b80565b91505092915050565b6000612f108383613069565b905092915050565b6000612f2483836133eb565b60208301905092915050565b612f3981613a51565b82525050565b6000612f4a82613896565b612f5481856138dc565b935083602082028501612f6685613876565b8060005b85811015612fa25784840389528151612f838582612f04565b9450612f8e836138c2565b925060208a01995050600181019050612f6a565b50829750879550505050505092915050565b6000612fbf826138a1565b612fc981856138ed565b9350612fd483613886565b8060005b83811015613005578151612fec8882612f18565b9750612ff7836138cf565b925050600181019050612fd8565b5085935050505092915050565b61301b81613a63565b82525050565b61302a81613a6f565b82525050565b600061303b826138ac565b61304581856138fe565b9350613055818560208601613ade565b61305e81613d46565b840191505092915050565b6000613074826138b7565b61307e818561390f565b935061308e818560208601613ade565b61309781613d46565b840191505092915050565b60006130ad826138b7565b6130b78185613920565b93506130c7818560208601613ade565b6130d081613d46565b840191505092915050565b60006130e6826138b7565b6130f08185613931565b9350613100818560208601613ade565b80840191505092915050565b6000613119602083613920565b915061312482613d57565b602082019050919050565b600061313c602b83613920565b915061314782613d80565b604082019050919050565b600061315f603283613920565b915061316a82613dcf565b604082019050919050565b6000613182601c83613920565b915061318d82613e1e565b602082019050919050565b60006131a5602483613920565b91506131b082613e47565b604082019050919050565b60006131c8601983613920565b91506131d382613e96565b602082019050919050565b60006131eb602983613920565b91506131f682613ebf565b604082019050919050565b600061320e602c83613920565b915061321982613f0e565b604082019050919050565b6000613231603883613920565b915061323c82613f5d565b604082019050919050565b6000613254602a83613920565b915061325f82613fac565b604082019050919050565b6000613277602983613920565b915061328282613ffb565b604082019050919050565b600061329a602083613920565b91506132a58261404a565b602082019050919050565b60006132bd602c83613920565b91506132c882614073565b604082019050919050565b60006132e0602983613920565b91506132eb826140c2565b604082019050919050565b6000613303602f83613920565b915061330e82614111565b604082019050919050565b6000613326602183613920565b915061333182614160565b604082019050919050565b6000613349603183613920565b9150613354826141af565b604082019050919050565b600061336c602c83613920565b9150613377826141fe565b604082019050919050565b600061338f601783613931565b915061339a8261424d565b601782019050919050565b60006133b2601183613931565b91506133bd82614276565b601182019050919050565b60006133d5602f83613920565b91506133e08261429f565b604082019050919050565b6133f481613ac5565b82525050565b61340381613ac5565b82525050565b600061341582846130db565b915081905092915050565b600061342c82856130db565b915061343882846130db565b91508190509392505050565b600061344f82613382565b915061345b82856130db565b9150613466826133a5565b915061347282846130db565b91508190509392505050565b60006020820190506134936000830184612f30565b92915050565b60006080820190506134ae6000830187612f30565b6134bb6020830186612f30565b6134c860408301856133fa565b81810360608301526134da8184613030565b905095945050505050565b600060408201905081810360008301526134ff8185612fb4565b905081810360208301526135138184612f3f565b90509392505050565b60006020820190506135316000830184613012565b92915050565b600060208201905061354c6000830184613021565b92915050565b6000602082019050818103600083015261356c81846130a2565b905092915050565b6000602082019050818103600083015261358d8161310c565b9050919050565b600060208201905081810360008301526135ad8161312f565b9050919050565b600060208201905081810360008301526135cd81613152565b9050919050565b600060208201905081810360008301526135ed81613175565b9050919050565b6000602082019050818103600083015261360d81613198565b9050919050565b6000602082019050818103600083015261362d816131bb565b9050919050565b6000602082019050818103600083015261364d816131de565b9050919050565b6000602082019050818103600083015261366d81613201565b9050919050565b6000602082019050818103600083015261368d81613224565b9050919050565b600060208201905081810360008301526136ad81613247565b9050919050565b600060208201905081810360008301526136cd8161326a565b9050919050565b600060208201905081810360008301526136ed8161328d565b9050919050565b6000602082019050818103600083015261370d816132b0565b9050919050565b6000602082019050818103600083015261372d816132d3565b9050919050565b6000602082019050818103600083015261374d816132f6565b9050919050565b6000602082019050818103600083015261376d81613319565b9050919050565b6000602082019050818103600083015261378d8161333c565b9050919050565b600060208201905081810360008301526137ad8161335f565b9050919050565b600060208201905081810360008301526137cd816133c8565b9050919050565b60006020820190506137e960008301846133fa565b92915050565b60006137f961380a565b90506138058282613b6d565b919050565b6000604051905090565b600067ffffffffffffffff82111561382f5761382e613d03565b5b61383882613d46565b9050602081019050919050565b600067ffffffffffffffff8211156138605761385f613d03565b5b61386982613d46565b9050602081019050919050565b6000819050602082019050919050565b6000819050602082019050919050565b600081519050919050565b600081519050919050565b600081519050919050565b600081519050919050565b6000602082019050919050565b6000602082019050919050565b600082825260208201905092915050565b600082825260208201905092915050565b600082825260208201905092915050565b600082825260208201905092915050565b600082825260208201905092915050565b600081905092915050565b600061394782613ac5565b915061395283613ac5565b9250827fffffffffffffffffffffffffffffffffffffffffffffffffffffffffffffffff0382111561398757613986613c18565b5b828201905092915050565b600061399d82613ac5565b91506139a883613ac5565b9250826139b8576139b7613c47565b5b828204905092915050565b60006139ce82613ac5565b91506139d983613ac5565b9250817fffffffffffffffffffffffffffffffffffffffffffffffffffffffffffffffff0483118215151615613a1257613a11613c18565b5b828202905092915050565b6000613a2882613ac5565b9150613a3383613ac5565b925082821015613a4657613a45613c18565b5b828203905092915050565b6000613a5c82613aa5565b9050919050565b60008115159050919050565b6000819050919050565b60007fffffffff0000000000000000000000000000000000000000000000000000000082169050919050565b600073ffffffffffffffffffffffffffffffffffffffff82169050919050565b6000819050919050565b82818337600083830152505050565b60005b83811015613afc578082015181840152602081019050613ae1565b83811115613b0b576000848401525b50505050565b6000613b1c82613ac5565b91506000821415613b3057613b2f613c18565b5b600182039050919050565b60006002820490506001821680613b5357607f821691505b60208210811415613b6757613b66613c76565b5b50919050565b613b7682613d46565b810181811067ffffffffffffffff82111715613b9557613b94613d03565b5b80604052505050565b6000613ba982613ac5565b91507fffffffffffffffffffffffffffffffffffffffffffffffffffffffffffffffff821415613bdc57613bdb613c18565b5b600182019050919050565b6000613bf282613ac5565b9150613bfd83613ac5565b925082613c0d57613c0c613c47565b5b828206905092915050565b7f4e487b7100000000000000000000000000000000000000000000000000000000600052601160045260246000fd5b7f4e487b7100000000000000000000000000000000000000000000000000000000600052601260045260246000fd5b7f4e487b7100000000000000000000000000000000000000000000000000000000600052602260045260246000fd5b7f4e487b7100000000000000000000000000000000000000000000000000000000600052603160045260246000fd5b7f4e487b7100000000000000000000000000000000000000000000000000000000600052603260045260246000fd5b7f4e487b7100000000000000000000000000000000000000000000000000000000600052604160045260246000fd5b600080fd5b600080fd5b600080fd5b600080fd5b6000601f19601f8301169050919050565b7f537472696e67733a20686578206c656e67746820696e73756666696369656e74600082015250565b7f455243373231456e756d657261626c653a206f776e657220696e646578206f7560008201527f74206f6620626f756e6473000000000000000000000000000000000000000000602082015250565b7f4552433732313a207472616e7366657220746f206e6f6e20455243373231526560008201527f63656976657220696d706c656d656e7465720000000000000000000000000000602082015250565b7f4552433732313a20746f6b656e20616c7265616479206d696e74656400000000600082015250565b7f4552433732313a207472616e7366657220746f20746865207a65726f2061646460008201527f7265737300000000000000000000000000000000000000000000000000000000602082015250565b7f4552433732313a20617070726f766520746f2063616c6c657200000000000000600082015250565b7f544b5320666f7220676976656e206173736f63696174696f6e20646f6573206e60008201527f6f742065786973742e0000000000000000000000000000000000000000000000602082015250565b7f4552433732313a206f70657261746f7220717565727920666f72206e6f6e657860008201527f697374656e7420746f6b656e0000000000000000000000000000000000000000602082015250565b7f4552433732313a20617070726f76652063616c6c6572206973206e6f74206f7760008201527f6e6572206e6f7220617070726f76656420666f7220616c6c0000000000000000602082015250565b7f4552433732313a2062616c616e636520717565727920666f7220746865207a6560008201527f726f206164647265737300000000000000000000000000000000000000000000602082015250565b7f4552433732313a206f776e657220717565727920666f72206e6f6e657869737460008201527f656e7420746f6b656e0000000000000000000000000000000000000000000000602082015250565b7f4552433732313a206d696e7420746f20746865207a65726f2061646472657373600082015250565b7f4552433732313a20617070726f76656420717565727920666f72206e6f6e657860008201527f697374656e7420746f6b656e0000000000000000000000000000000000000000602082015250565b7f4552433732313a207472616e73666572206f6620746f6b656e2074686174206960008201527f73206e6f74206f776e0000000000000000000000000000000000000000000000602082015250565b7f4552433732314d657461646174613a2055524920717565727920666f72206e6f60008201527f6e6578697374656e7420746f6b656e0000000000000000000000000000000000602082015250565b7f4552433732313a20617070726f76616c20746f2063757272656e74206f776e6560008201527f7200000000000000000000000000000000000000000000000000000000000000602082015250565b7f4552433732313a207472616e736665722063616c6c6572206973206e6f74206f60008201527f776e6572206e6f7220617070726f766564000000000000000000000000000000602082015250565b7f455243373231456e756d657261626c653a20676c6f62616c20696e646578206f60008201527f7574206f6620626f756e64730000000000000000000000000000000000000000602082015250565b7f416363657373436f6e74726f6c3a206163636f756e7420000000000000000000600082015250565b7f206973206d697373696e6720726f6c6520000000000000000000000000000000600082015250565b7f416363657373436f6e74726f6c3a2063616e206f6e6c792072656e6f756e636560008201527f20726f6c657320666f722073656c660000000000000000000000000000000000602082015250565b6142f781613a51565b811461430257600080fd5b50565b61430e81613a63565b811461431957600080fd5b50565b61432581613a6f565b811461433057600080fd5b50565b61433c81613a79565b811461434757600080fd5b50565b61435381613ac5565b811461435e57600080fd5b5056fea26469706673582212206ad747a398dfb24e752e140e62ad7def7a644d8ab78712edf719ce325fbc6c6b64736f6c63430008060033",
  "immutableReferences": {},
  "source": "pragma solidity >0.5.0;\n\nimport \"@openzeppelin/contracts/token/ERC721/ERC721.sol\";\nimport \"@openzeppelin/contracts/token/ERC721/extensions/ERC721URIStorage.sol\";\nimport \"@openzeppelin/contracts/token/ERC721/extensions/ERC721Enumerable.sol\";\nimport \"@openzeppelin/contracts/utils/Counters.sol\";\nimport \"@openzeppelin/contracts/access/AccessControl.sol\";\n\n// TODO: Include data in the NFT; TokenURI?\n// TODO: Update tests with updated struct, etc.\n// TODO: TransferNFT!\n\n// Using in-block memory for the NFTs\n// If want to use TokenURI, need to set contract to ERC721URIStorage\ncontract Tokenship is ERC721Enumerable, AccessControl {\n    bytes32 private constant MINTER_ROLE = keccak256(\"MINTER_ROLE\");\n\n    using Counters for Counters.Counter;\n    Counters.Counter private _tokenIds;\n\n    struct tksInfo {\n        uint256 id;\n        string association;\n    }\n\n    // Getter function that excepts for its arguments: Association Name and Index of the Token\n    // Can cause IOOB error\n    // mapping(string => tksInfo[]) public tksInfoList;\n\n    mapping(string => uint256[]) private indexMap;\n    tksInfo[] private tksInfoList;\n    \n\n    constructor() ERC721(\"Tokenship\", \"TKS\") {\n        _setupRole(MINTER_ROLE, msg.sender);\n    }\n\n    function mintMultNFT(address owner, uint n, string memory association) public onlyRole(MINTER_ROLE) {   \n        for (uint i = 0; i < n; i++) {\n            mintNFT(owner, association);\n        }\n    }\n\n    function mintNFT(address owner, string memory association) private {\n        uint256 currId = _tokenIds.current();\n        _mint(owner, currId);\n\n        tksInfo memory currInfo = tksInfo(currId, association);\n        tksInfoList.push(currInfo);\n        indexMap[association].push(currId);\n\n        _tokenIds.increment();\n    }\n\n    // Can't return structs\n    // Need to return values of the structs\n    // function getAllTksInfo(string memory association) public view returns (tksInfo[] memory) {\n    //     require(indexMap[association].length != 0, \"TKS for given association does not exist.\");\n\n    //     uint256[] memory index = indexMap[association];\n    //     uint n = index.length;\n    //     tksInfo[] memory tokens = new tksInfo[](n);\n    //     for (uint i = 0; i < n; i++) {\n    //         tokens[i] = getTksInfo(index[i]);\n    //     }\n\n    //     return tokens;\n    // }\n\n    function getAllTksInfo(string memory association) public view returns (uint256[] memory, string[] memory) {\n        require(indexMap[association].length != 0, \"TKS for given association does not exist.\");\n\n        uint256[] memory index = indexMap[association];\n        uint n = index.length;\n        uint256[] memory ids = new uint256[](n);\n        string[] memory associations = new string[](n);\n\n        tksInfo memory currTks; \n        for (uint i = 0; i < n; i++) {\n            currTks = getTksInfo(index[i]);\n            ids[i] = currTks.id;\n            associations[i] = currTks.association;\n        }\n\n        return (ids, associations);\n    }\n\n    function totalSupply(string memory association) public view returns (uint256) {\n        require(indexMap[association].length != 0, \"TKS for given association does not exist.\");\n        \n        uint256[] memory index = indexMap[association];\n        return index.length;\n    }\n\n    function getTksInfo(uint tokenId) private view returns (tksInfo memory) {\n        return tksInfoList[tokenId];\n    }\n\n    function supportsInterface(bytes4 interfaceId) public view virtual override(ERC721Enumerable, AccessControl) returns (bool) {\n        return super.supportsInterface(interfaceId);\n    }\n}",
  "sourcePath": "/Users/kidohand/Documents/cs/blockchain/ethereum/tokenship/contracts/Tokenship.sol",
  "compiler": {
    "name": "solc",
    "version": "0.8.6+commit.11564f7e.Emscripten.clang"
  },
  "schemaVersion": "3.4.1",
  "updatedAt": "2021-07-09T21:08:58.220Z",
  "networkType": "ethereum",
  "devdoc": {
    "kind": "dev",
    "methods": {
      "approve(address,uint256)": {
        "details": "See {IERC721-approve}."
      },
      "balanceOf(address)": {
        "details": "See {IERC721-balanceOf}."
      },
      "getApproved(uint256)": {
        "details": "See {IERC721-getApproved}."
      },
      "getRoleAdmin(bytes32)": {
        "details": "Returns the admin role that controls `role`. See {grantRole} and {revokeRole}. To change a role's admin, use {_setRoleAdmin}."
      },
      "grantRole(bytes32,address)": {
        "details": "Grants `role` to `account`. If `account` had not been already granted `role`, emits a {RoleGranted} event. Requirements: - the caller must have ``role``'s admin role."
      },
      "hasRole(bytes32,address)": {
        "details": "Returns `true` if `account` has been granted `role`."
      },
      "isApprovedForAll(address,address)": {
        "details": "See {IERC721-isApprovedForAll}."
      },
      "name()": {
        "details": "See {IERC721Metadata-name}."
      },
      "ownerOf(uint256)": {
        "details": "See {IERC721-ownerOf}."
      },
      "renounceRole(bytes32,address)": {
        "details": "Revokes `role` from the calling account. Roles are often managed via {grantRole} and {revokeRole}: this function's purpose is to provide a mechanism for accounts to lose their privileges if they are compromised (such as when a trusted device is misplaced). If the calling account had been granted `role`, emits a {RoleRevoked} event. Requirements: - the caller must be `account`."
      },
      "revokeRole(bytes32,address)": {
        "details": "Revokes `role` from `account`. If `account` had been granted `role`, emits a {RoleRevoked} event. Requirements: - the caller must have ``role``'s admin role."
      },
      "safeTransferFrom(address,address,uint256)": {
        "details": "See {IERC721-safeTransferFrom}."
      },
      "safeTransferFrom(address,address,uint256,bytes)": {
        "details": "See {IERC721-safeTransferFrom}."
      },
      "setApprovalForAll(address,bool)": {
        "details": "See {IERC721-setApprovalForAll}."
      },
      "symbol()": {
        "details": "See {IERC721Metadata-symbol}."
      },
      "tokenByIndex(uint256)": {
        "details": "See {IERC721Enumerable-tokenByIndex}."
      },
      "tokenOfOwnerByIndex(address,uint256)": {
        "details": "See {IERC721Enumerable-tokenOfOwnerByIndex}."
      },
      "tokenURI(uint256)": {
        "details": "See {IERC721Metadata-tokenURI}."
      },
      "totalSupply()": {
        "details": "See {IERC721Enumerable-totalSupply}."
      },
      "transferFrom(address,address,uint256)": {
        "details": "See {IERC721-transferFrom}."
      }
    },
    "version": 1
  },
  "userdoc": {
    "kind": "user",
    "methods": {},
    "version": 1
  }
}